:020000040800F2
:10000000000005203D4A0008E5470008F3470008C6
:10001000F9470008FF4700080548000800000000F5
:100020000000000000000000000000004133000854
:100030000B4800080000000081350008194800083E
:100040008D4A00088D4A00088D4A00088D4A000834
:100050008D4A00088D4A00088D4A00088D4A000824
:100060008D4A00088D4A00088D4A00088D4A000814
:100070008D4A00088D4A00088D4A00088D4A000804
:100080008D4A00088D4A00088D4A00088D4A0008F4
:100090008D4A00088D4A00088D4A00088D4A0008E4
:1000A0008D4A00088D4A00088D4A00088D4A0008D4
:1000B0008D4A00088D4A00088D4A00088D4A0008C4
:1000C0008D4A00088D4A00088D4A00088D4A0008B4
:1000D0008D4A00088D4A00088D4A00088D4A0008A4
:1000E0008D4A00088D4A00088D4A00088D4A000894
:1000F0008D4A00088D4A00088D4A00088D4A000884
:100100008D4A00088D4A00088D4A00088D4A000873
:100110008D4A00088D4A00088D4A00088D4A000863
:100120008D4A00088D4A00088D4A00088D4A000853
:100130008D4A00088D4A00088D4A00088D4A000843
:100140008D4A00088D4A00088D4A00088D4A000833
:100150008D4A00088D4A00088D4A00088D4A000823
:100160008D4A00088D4A00088D4A00088D4A000813
:100170008D4A00088D4A00088D4A00088D4A000803
:100180008D4A00088D4A00088D4A00088D4A0008F3
:100190008D4A00088D4A00088D4A00088D4A0008E3
:0C01A0008D4A00088D4A00088D4A0008B6
:1001B00010B5054C237833B9044B13B10448AFF3A1
:1001C00000800123237010BD1000002000000000FB
:1001D000E84A000808B5034B1BB103490348AFF3D5
:1001E000008008BD0000000014000020E84A00085C
:1001F00053B94AB9002908BF00281CBF4FF0FF318E
:100200004FF0FF3000F07AB9ADF1080C6DE904CE83
:1002100000F006F8DDF804E0DDE9022304B07047E1
:100220002DE9F0478C460D460446089E002B51D11F
:100230008A4217466DD9B2FA82FEBEF1000F0BD08A
:10024000CEF1200C01FA0EF520FA0CFC02FA0EF7A2
:100250004CEA050C00FA0EF44FEA174A250CBCFBD9
:10026000FAF81FFA87F90AFB18CC45EA0C4508FB97
:1002700009F3AB420AD9ED1908F1FF3280F023816E
:10028000AB4240F22081A8F102083D44ED1AA4B22D
:10029000B5FBFAF00AFB105544EA054400FB09F9E6
:1002A000A14509D9E41900F1FF3380F00A81A14585
:1002B00040F2078102383C44A4EB090440EA0840BC
:1002C0000021002E61D024FA0EF400233460736004
:1002D000BDE8F0878B4207D9002E54D0002186E874
:1002E00021000846BDE8F087B3FA83F1002940F009
:1002F0008E80AB4202D3824200F2FA80841A65EB10
:1003000003050120AC46002E3FD086E81010BDE862
:10031000F08712B90127B7FBF2F7B7FA87FEBEF1F3
:10032000000F34D1EB1B3A0C1FFA87FC0121B3FB01
:10033000F2F8250C02FB183345EA03450CFB08F3E1
:10034000AB4207D9ED1908F1FF3002D2AB4200F2FF
:10035000D1808046ED1AA3B2B5FBF2F002FB105536
:1003600043EA05440CFB00FCA44507D9E41900F15D
:10037000FF3302D2A44500F2B8801846A4EB0C0467
:1003800040EA08409DE731463046BDE8F087CEF1AF
:10039000200405FA0EF307FA0EF720FA04F83A0CD7
:1003A00025FA04F448EA0308B4FBF2F14FEA1845D1
:1003B00002FB11441FFA87FC45EA044501FB0CF3DC
:1003C000AB4200FA0EF409D9ED1901F1FF3080F0CB
:1003D0008A80AB4240F2878002393D44EB1A1FFA13
:1003E00088F5B3FBF2F002FB103345EA034500FB4E
:1003F0000CF3AB4207D9ED1900F1FF386FD2AB42D5
:100400006DD902383D44EB1A40EA01418FE7C1F152
:10041000200722FA07F88B4005FA01F448EA0303A3
:1004200020FA07FE4FEA134CFD404EEA040EB5FBDE
:10043000FCF94FEA1E440CFB19551FFA83F844EAF5
:10044000054509FB08F4AC4202FA01F200FA01FA90
:1004500008D9ED1809F1FF3043D2AC4241D9A9F1D6
:1004600002091D442D1B1FFA8EFEB5FBFCF00CFB90
:1004700010554EEA054400FB08F8A04507D9E418DA
:1004800000F1FF3529D2A04527D902381C4440EAA3
:100490000940A4EB0804A0FB02894C45C6464D4622
:1004A00015D312D056B1BAEB0E0364EB050404FA6F
:1004B00007F7CB401F43CC40376074600021BDE894
:1004C000F0871846F8E69046E0E6C245EAD2B8EB77
:1004D000020E69EB03050138E4E72846D7E74046FA
:1004E00091E78146BEE7014678E702383C4445E79C
:1004F000084608E7A8F102083D442BE7704700BF13
:1005000080B582B000AF0023FB71032000F018F922
:100510000F2000F00DF80346002B02D00123FB71E1
:1005200001E004F037F9FB7918460837BD4680BD75
:1005300080B584B000AF78600023FB73164B1B6856
:10054000002B22D0154B1A68134B1B684FF47A719D
:10055000B1FBF3F3B2FBF3F3184600F018F90346CE
:10056000002B0FD17B680F2B09D8002279684FF040
:10057000FF3000F0F0F80A4A7B68136007E00123BF
:10058000FB7304E00123FB7301E00123FB73FB7B9E
:1005900018461037BD4680BD040000200C00002026
:1005A0000000002080B400AF054B1A68054B1B68A3
:1005B0001344034A136000BFBD465DF8047B7047D7
:1005C000300D00200400002080B400AF034B1B68F6
:1005D0001846BD465DF8047B704700BF300D002013
:1005E00080B485B000AF78607B6803F00703FB60E0
:1005F0000C4BDB68BB60BA684FF6FF031340BB606F
:10060000FB681A02BB68134343F0BF6343F4003333
:10061000BB60044ABB68D36000BF1437BD465DF8B9
:10062000047B704700ED00E080B400AF044BDB6852
:100630001B0A03F007031846BD465DF8047B7047AC
:1006400000ED00E080B483B000AF03463960FB7179
:1006500097F90730002B0ADB0D4997F907303A6804
:10066000D2B21201D2B20B4483F800230AE0094946
:10067000FB7903F00F03043B3A68D2B21201D2B205
:100680000B441A7600BF0C37BD465DF8047B7047FB
:1006900000E100E000ED00E080B489B000AFF86058
:1006A000B9607A60FB6803F00703FB61FB69C3F183
:1006B0000703042B28BF0423BB61FB690433062B0B
:1006C00002D9FB69033B00E000237B610122BB6987
:1006D00002FA03F35A1EBB681A407B699A40012153
:1006E0007B6901FA03F3591E7B680B4013431846DC
:1006F0002437BD465DF8047B7047000080B582B0AA
:1007000000AF78607B68013BB3F1807F01D30123A8
:100710000FE00A4A7B68013B53600F214FF0FF3026
:10072000FFF790FF054B00229A60044B07221A60E6
:10073000002318460837BD4680BD00BF10E000E02A
:1007400080B582B000AF78607868FFF749FF00BFDE
:100750000837BD4680BD80B586B000AF0346B9609E
:100760007A60FB7300237B61FFF75EFF78617A6834
:10077000B9687869FFF790FF024697F90F30114684
:100780001846FFF75FFF00BF1837BD4680BD80B534
:1007900082B000AF78607868FFF7B0FF0346184674
:1007A0000837BD4680BD000080B582B000AF7860DC
:1007B0007B68002B01D1012354E07B685B7FDBB2B7
:1007C000002B05D17B6800221A77786803F06AFD58
:1007D0007B6802225A777B681B79002B0CD17B68DF
:1007E0001B68224A5A617B681B687A6812689268A3
:1007F00022F018029A600CE07B6899687B68DB68DD
:100800001A46786800F046F90346002B01D0012310
:1008100028E07B685B79002B05D17B681B684FF073
:10082000FF321A6104E07B681B687A6812691A61FA
:100830007B681B687A681268926822F060017A68A7
:1008400052690A439A607B681B687A6812689268EA
:1008500022F080017A6892690A439A607B680122DB
:100860005A77002318460837BD4680BDB71DC1041E
:1008700080B586B000AFF860B9607A6000233B6154
:10088000FB6802225A77FB681B68FA681268926854
:1008900042F001029A60FB681B6A022B22D0032BF4
:1008A00002D0012B17D024E000237B610AE0FB6813
:1008B0001B687A699200B9680A4412681A607B69F9
:1008C00001337B617A697B689A42F0D3FB681B68CD
:1008D0001B683B610DE07A68B968F86800F011F8B0
:1008E000386106E07A68B968F86800F099F838610C
:1008F00000BFFB6801225A773B6918461837BD468E
:1009000080BD80B489B000AFF860B9607A60002320
:10091000FB6122E0FB681B68FA699200B9680A442F
:1009200012781106FA6992000132B868024412780E
:1009300012041143FA6992000232B8680244127834
:1009400012020A43F96989000331B8680144097841
:100950000A431A60FB690133FB617B689A08FB69F3
:100960009A42D7D87B6803F00303002B4FD07B68F3
:1009700003F00303012B08D1FB681B681946FB69D0
:100980009B00BA6813441B780B707B6803F0030369
:10099000022B16D1FB699B00BA6813441B781B021B
:1009A0001AB2FB699B000133B9680B441B781BB278
:1009B00013431BB27B83FB681B687B617B697A8B6B
:1009C0001A807B6803F00303032B20D1FB699B0093
:1009D000BA6813441B781B021AB2FB699B000133EF
:1009E000B9680B441B781BB213431BB27B83FB68B3
:1009F0001B687B617B697A8B1A80FB681B681946D0
:100A0000FB699B000233BA6813441B780B70FB68C8
:100A10001B681B6818462437BD465DF8047B704789
:100A200080B487B000AFF860B9607A6000237B6162
:100A300012E0FB681B687A699200B9680A44128860
:100A40001204796989000231B868014409880A43AF
:100A50001A607B6901337B617B685A087B699A4223
:100A6000E7D87B6803F00103002B09D0FB681B6803
:100A70003B617B699B00BA6813441A883B691A8002
:100A8000FB681B681B6818461C37BD465DF8047B75
:100A90007047000080B487B000AFF860B9607A603A
:100AA0000023FB751F233B6100BF3B695A1E3A615F
:100AB000002B09D03B6903F01F03BA6822FA03F345
:100AC00003F00103002BF0D07B68182B46D801A25D
:100AD00052F823F0630B00085D0B00085D0B000863
:100AE0005D0B00085D0B00085D0B00085D0B000846
:100AF0005D0B0008510B00085D0B00085D0B000842
:100B00005D0B00085D0B00085D0B00085D0B000825
:100B10005D0B0008450B00085D0B00085D0B00082D
:100B20005D0B00085D0B00085D0B00085D0B000805
:100B30005D0B0008390B00083B69062B13D9012314
:100B4000FB7510E03B69072B0FD90123FB750CE007
:100B50003B690F2B0BD90123FB7508E00123FB75C3
:100B600006E000BF04E000BF02E000BF00E000BFFD
:100B7000FB7D002B0DD1FB681B68BA685A61FB68CE
:100B80001B68FA681268926822F018017A680A43B2
:100B90009A60FB7D18461C37BD465DF8047B7047A4
:100BA00080B487B000AF7860396000237B6166E174
:100BB0003B681A6801217B6901FA03F31340FB606B
:100BC000FB68002B00F058813B685B68022B03D068
:100BD0003B685B68122B23D17B69DA087B6808329B
:100BE00053F822303B617B6903F007039B000F221F
:100BF00002FA03F3DB433A6913403B613B681A692D
:100C00007B6903F007039B0002FA03F33A6913437D
:100C10003B617B69DA087B680832396943F8221046
:100C20007B681B683B617B695B00032202FA03F36C
:100C3000DB433A6913403B613B685B6803F00302A6
:100C40007B695B0002FA03F33A6913433B617B68FB
:100C50003A691A603B685B68012B0BD03B685B68A4
:100C6000022B07D03B685B68112B03D03B685B68A5
:100C7000122B30D17B689B683B617B695B00032250
:100C800002FA03F3DB433A6913403B613B68DA68DD
:100C90007B695B0002FA03F33A6913433B617B68AB
:100CA0003A699A607B685B683B6101227B6902FA62
:100CB00003F3DB433A6913403B613B685B681B0904
:100CC00003F001027B6902FA03F33A6913433B61C3
:100CD0007B683A695A607B68DB683B617B695B00D3
:100CE000032202FA03F3DB433A6913403B613B689A
:100CF0009A687B695B0002FA03F33A6913433B612C
:100D00007B683A69DA603B685B6803F08053002BCC
:100D100000F0B280614A614B1B6E43F00103136621
:100D20005E4B1B6E03F00103BB60BB685C4A7B69D2
:100D30009B08023352F823303B617B6903F00303C5
:100D40009B000F2202FA03F3DB433A6913403B6135
:100D50007B68B3F1904F2BD07B68524A934225D0E9
:100D60007B68514A93421FD07B68504A934219D006
:100D70007B684F4A934213D07B684E4A93420DD012
:100D80007B684D4A934207D07B684C4A934201D11D
:100D900007230EE008230CE006230AE0052308E001
:100DA000042306E0032304E0022302E0012300E021
:100DB00000237A6902F00302920093403A691343D8
:100DC0003B6137497B699B0802333A6941F823202C
:100DD0003B4B1B683B61FB68DB433A6913403B615B
:100DE0003B685B6803F48033002B03D03A69FB68EF
:100DF00013433B61324A3B691360314B5B683B6193
:100E0000FB68DB433A6913403B613B685B6803F472
:100E10000033002B03D03A69FB6813433B61284A37
:100E20003B695360264B9B683B61FB68DB433A6937
:100E300013403B613B685B6803F48013002B03D0D5
:100E40003A69FB6813433B611D4A3B6993601C4B45
:100E5000DB683B61FB68DB433A6913403B613B68FD
:100E60005B6803F40013002B03D03A69FB6813435B
:100E70003B61134A3B69D3607B6901337B613B680B
:100E80001A687B6922FA03F3002B7FF491AE00BF4E
:100E90001C37BD465DF8047B704700BF0010024060
:100EA000000001400004004800080048000C004811
:100EB000001000480014004800180048001C0048BA
:100EC0000004014080B485B000AF78600B467B80A1
:100ED0007B681A697B881340002B02D00123FB73C7
:100EE00001E00023FB73FB7B18461437BD465DF819
:100EF000047B704780B400AF044B1B6803F4C063ED
:100F00001846BD465DF8047B704700BF0070004086
:100F100080B485B000AF78607B68B3F5007F30D1D6
:100F2000234B1B6803F4C063B3F5007F38D0204A1D
:100F30001F4B1B6823F4C06343F4007313601D4B05
:100F40001B68322202FB03F31B4AA2FB03239B0C08
:100F50000133FB6002E0FB68013BFB60144B5B6903
:100F600003F48063B3F5806F02D1FB68002BF2D1EC
:100F70000F4B5B6903F48063B3F5806F10D10323DB
:100F80000FE00B4B1B6803F4C063B3F5806F07D011
:100F9000074A074B1B6823F4C06343F48063136064
:100FA000002318461437BD465DF8047B704700BF28
:100FB000007000400C00002083DE1B4380B588B029
:100FC00000AF78607B68002B01D10123DBE3A44BE9
:100FD0009B6803F00C03BB61A14BDB6803F00303C8
:100FE0007B617B681B6803F01003002B00F0E1803D
:100FF000BB69002B07D0BB690C2B40F088807B6954
:10100000012B40F08480964B1B6803F00203002BF9
:1010100005D07B689B69002B01D10123B3E37B687A
:101020001A6A8F4B1B6803F00803002B04D08C4B0B
:101030001B6803F0F00305E0894BD3F894301B09DB
:1010400003F0F0039A4223D97B681B6A184600F02C
:1010500047FD0346002B01D0012394E3804A804BD7
:101060001B6843F0080313607D497D4B1B6823F028
:10107000F0027B681B6A13430B607949784B5B680D
:1010800023F47F427B68DB691B0213434B6022E041
:10109000734A734B1B6843F0080313607049704B2D
:1010A0001B6823F0F0027B681B6A13430B606C49DA
:1010B0006B4B5B6823F47F427B68DB691B02134345
:1010C0004B607B681B6A184600F00AFD0346002B44
:1010D00001D0012357E300F041FC0146604B9B68BF
:1010E0001B0903F00F035F4AD35C03F01F0321FACF
:1010F00003F35D4A13605D4B1B681846FFF718FA4F
:101100000346FB73FB7B002B52D0FB7B3BE37B68EE
:101110009B69002B32D0524A514B1B6843F00103AC
:101120001360FFF751FA386108E0FFF74DFA024605
:101130003B69D31A022B01D9032324E3484B1B68D4
:1011400003F00203002BF0D0454A454B1B6843F0E7
:10115000080313604249424B1B6823F0F0027B688E
:101160001B6A13430B603E493D4B5B6823F47F428F
:101170007B68DB691B0213434B601AE0384A384B2B
:101180001B6823F001031360FFF71EFA386108E0C3
:10119000FFF71AFA02463B69D31A022B01D903233F
:1011A000F1E22F4B1B6803F00203002BF0D100E0AB
:1011B00000BF7B681B6803F00103002B74D0BB6980
:1011C000082B05D0BB690C2B0ED17B69032B0BD1EF
:1011D000234B1B6803F40033002B64D07B685B68EF
:1011E000002B60D10123CEE27B685B68B3F5803FC2
:1011F00006D11B4A1A4B1B6843F4803313601DE071
:101200007B685B68B3F5A02F0CD1154A144B1B68A3
:1012100043F480231360124A114B1B6843F480335C
:1012200013600BE00E4A0E4B1B6823F480331360EF
:101230000B4A0B4B1B6823F4802313607B685B68AD
:10124000002B1CD0FFF7C0F9386111E0FFF7BCF9A3
:1012500002463B69D31A642B0AD9032393E200BFE9
:10126000001002402C4B00080C0000200000002061
:10127000AE4B1B6803F40033002BE7D014E0FFF7FC
:10128000A3F9386108E0FFF79FF902463B69D31ADA
:10129000642B01D9032376E2A44B1B6803F40033CB
:1012A000002BF0D100E000BF7B681B6803F0020355
:1012B000002B60D0BB69042B05D0BB690C2B19D166
:1012C0007B69022B16D1994B1B6803F48063002BBA
:1012D00005D07B68DB68002B01D1012353E29349E1
:1012E000924B5B6823F0FE427B681B691B0613432D
:1012F0004B6040E07B68DB68002B23D08B4A8B4B34
:101300001B6843F480731360FFF75EF9386108E0EF
:10131000FFF75AF902463B69D31A022B01D903237E
:1013200031E2824B1B6803F48063002BF0D07F49CD
:101330007E4B5B6823F0FE427B681B691B061343F0
:101340004B6018E0794A794B1B6823F48073136073
:10135000FFF73AF9386108E0FFF736F902463B69D2
:10136000D31A022B01D903230DE2704B1B6803F43F
:101370008063002BF0D17B681B6803F00803002B0F
:101380003CD07B685B69002B1CD0684A674BD3F864
:10139000943043F00103C2F89430FFF715F9386137
:1013A00008E0FFF711F902463B69D31A022B01D975
:1013B0000323E8E15D4BD3F8943003F00203002BE4
:1013C000EFD01BE0594A594BD3F8943023F0010376
:1013D000C2F89430FFF7F8F8386108E0FFF7F4F846
:1013E00002463B69D31A022B01D90323CBE14F4BB1
:1013F000D3F8943003F00203002BEFD17B681B6815
:1014000003F00403002B00F0A5800023FB77474B7B
:101410009B6D03F08053002B0DD1444A434B9B6DD1
:1014200043F080539365414B9B6D03F08053BB6049
:10143000BB680123FB773E4B1B6803F48073002BD2
:1014400018D13B4A3A4B1B6843F480731360FFF793
:10145000BBF8386108E0FFF7B7F802463B69D31ADA
:10146000022B01D903238EE1314B1B6803F48073F7
:10147000002BF0D07B689B68012B08D12B4A2B4BAB
:10148000D3F8903043F00103C2F8903024E07B6839
:101490009B68052B10D1254A244BD3F8903043F09C
:1014A0000403C2F89030214A204BD3F8903043F027
:1014B0000103C2F890300FE01C4A1C4BD3F8903067
:1014C00023F00103C2F89030184A184BD3F890303B
:1014D00023F00403C2F890307B689B68002B16D081
:1014E000FFF772F838610AE0FFF76EF802463B69D1
:1014F000D31A41F28832934201D9032343E10B4BC3
:10150000D3F8903003F00203002BEDD019E0FFF781
:101510005BF838610EE0FFF757F802463B69D31AD3
:1015200041F28832934205D903232CE10010024096
:1015300000700040964BD3F8903003F00203002B6C
:10154000E9D1FB7F012B05D1914A914B9B6D23F093
:10155000805393657B681B6803F02003002B3CD00D
:101560007B685B6A002B1CD0894A894BD3F8983082
:1015700043F00103C2F89830FFF726F8386108E01D
:10158000FFF722F802463B69D31A022B01D9032345
:10159000F9E07F4BD3F8983003F00203002BEFD033
:1015A0001BE07B4A7A4BD3F8983023F00103C2F852
:1015B0009830FFF709F8386108E0FFF705F80246B0
:1015C0003B69D31A022B01D90323DCE0704BD3F81B
:1015D000983003F00203002BEFD17B689B6A002B4D
:1015E00000F0D080BB690C2B00F08D807B689B6A7B
:1015F000022B5AD1664A664B1B6823F08073136036
:10160000FEF7E2FF386108E0FEF7DEFF02463B69C5
:10161000D31A022B01D90323B5E05D4B1B6803F0FD
:101620000073002BF0D15A48594BDA68594B1340DC
:101630007A68D16A7A68126B013A120111437A68AA
:10164000526B120211437A68D26B5208013A52056A
:1016500011437A68126C5208013A520611437A68B3
:10166000926BD2060A431343C360494A484B1B6836
:1016700043F080731360464A454BDB6843F0807348
:10168000D360FEF7A1FF386108E0FEF79DFF024638
:101690003B69D31A022B01D9032374E03C4B1B682E
:1016A00003F00073002BF0D06CE0394A384B1B6814
:1016B00023F080731360364B1B6803F02053002B1C
:1016C00005D1334A324BDB6823F00303D360304A41
:1016D0002F4BDB6823F0887323F48033D360FEF74D
:1016E00073FF386108E0FEF76FFF02463B69D31ACB
:1016F000022B01D9032346E0254B1B6803F000733E
:10170000002BF0D13EE07B689B6A012B01D10123C5
:1017100039E01F4BDB687B617B6903F003027B6868
:10172000DB6A9A422CD17B6903F070027B681B6BE9
:10173000013B1B019A4223D17B6903F4FE427B6883
:101740005B6B1B029A421BD17B6903F078427B687A
:101750009B6BDB069A4213D17B6903F4C0027B6862
:10176000DB6B5B08013B5B059A4209D17B6903F0A7
:10177000C0627B681B6C5B08013B5B069A4201D030
:10178000012300E0002318462037BD4680BD00BF7E
:10179000001002408C809D0180B584B000AF78605D
:1017A00039607B68002B01D10123C8E0664B1B68C0
:1017B00003F007023B689A4210D26349624B1B68F0
:1017C00023F007023B6813430B605F4B1B6803F079
:1017D00007023B689A4201D00123B0E07B681B6896
:1017E00003F00103002B4CD07B685B68032B07D10F
:1017F000564B1B6803F00073002B21D101239EE0A0
:101800007B685B68022B07D1504B1B6803F40033E5
:10181000002B15D1012392E07B685B68002B07D178
:101820004A4B1B6803F00203002B09D1012386E019
:10183000464B1B6803F48063002B01D101237EE03B
:101840004249424B9B6823F003027B685B68134369
:101850008B60FEF7B9FEF8600AE0FEF7B5FE0246BF
:10186000FB68D31A41F28832934201D9032366E020
:10187000364B9B6803F00C027B685B689B009A42C6
:10188000EBD17B681B6803F00203002B08D02F49C3
:101890002E4B9B6823F0F0027B689B6813438B60A0
:1018A000294B1B6803F007023B689A4210D926496E
:1018B000254B1B6823F007023B6813430B60224B48
:1018C0001B6803F007023B689A4201D0012336E00F
:1018D0007B681B6803F00403002B08D01B491B4BDB
:1018E0009B6823F4E0627B68DB6813438B607B6852
:1018F0001B6803F00803002B09D01449134B9B68A5
:1019000023F460527B681B69DB0013438B6000F09B
:1019100025F801460D4B9B681B0903F00F030C4A89
:10192000D35C03F01F0321FA03F30A4A13600A4B46
:101930001B681846FEF7FCFD0346FB72FB7A18464F
:101940001037BD4680BD00BF00200240001002409D
:101950002C4B00080C0000200000002080B489B04F
:1019600000AF0023FB610023BB613D4B9B6803F08C
:101970000C033B613A4BDB6803F00303FB603B69FC
:10198000002B05D03B690C2B21D1FB68012B1ED10C
:10199000334B1B6803F00803002B07D1304BD3F8FF
:1019A00094301B0A03F00F03FB6105E02C4B1B680E
:1019B0001B0903F00F03FB612A4AFB6952F823302D
:1019C000FB613B69002B0DD1FB69BB610AE03B6900
:1019D000042B02D1244BBB6104E03B69082B01D1ED
:1019E000224BBB613B690C2B33D11D4BDB6803F0F1
:1019F0000303BB60BB68022B02D0032B03D005E0BE
:101A0000194B7B6105E0194B7B6102E0FB697B614F
:101A100000BF134BDB681B0903F0070301337B6036
:101A20000F4BDB681B0A03F07F037A6902FB03F2AA
:101A30007B68B2FBF3F37B61094BDB685B0E03F061
:101A4000030301335B003B607A693B68B2FBF3F34D
:101A5000BB61BB6918462437BD465DF8047B7047FF
:101A600000100240444B00080024F400002D310116
:101A700080B400AF034B1B681846BD465DF8047B7D
:101A8000704700BF0C00002080B500AFFFF7F0FFEB
:101A90000146064B9B681B0A03F00703044AD35C0C
:101AA00003F01F0321FA03F3184680BD0010024023
:101AB0003C4B000880B500AFFFF7DAFF0146064B4C
:101AC0009B68DB0A03F00703044AD35C03F01F039F
:101AD00021FA03F3184680BD001002403C4B000879
:101AE00080B586B000AF786000233B612A4B9B6DC8
:101AF00003F08053002B03D0FFF7FCF9786114E06A
:101B0000254A254B9B6D43F080539365224B9B6D7B
:101B100003F08053FB60FB68FFF7ECF978611E4A25
:101B20001D4B9B6D23F0805393657B69B3F5007F5C
:101B30000BD17B68802B19D97B68A02B02D902239B
:101B40003B6113E001233B6110E07B68802B02D9ED
:101B500003233B610AE07B68802B02D102233B61B7
:101B600004E07B68702B01D101233B610B490B4BD7
:101B70001B6823F007023B6913430B60074B1B688C
:101B800003F007023B699A4201D0012300E00023E1
:101B900018461837BD4680BD0010024000200240A4
:101BA00080B586B000AF78600023FB740023BB745F
:101BB0007B681B6803F40063002B3FD07B689B6E3F
:101BC000B3F5800F1CD0B3F5800F02D8002B0ED0D8
:101BD0001FE0B3F5000F03D0B3F5400F1CD018E0A1
:101BE000854A854BDB6843F48033D36015E07B681E
:101BF00004330021184600F0CBFA0346FB740CE0D6
:101C00007B6820330021184600F0B2FB0346FB74CA
:101C100003E00123FB7400E000BFFB7C002B0BD131
:101C20007549754BD3F8883023F440027B689B6E6E
:101C30001343C1F8883001E0FB7CBB747B681B68F0
:101C400003F48053002B3FD07B68DB6EB3F1807FC1
:101C50001CD0B3F1807F02D8002B0ED01FE0B3F16F
:101C6000007F03D0B3F1407F1CD018E0624A624B82
:101C7000DB6843F48033D36015E07B6804330021D4
:101C8000184600F085FA0346FB740CE07B682033AD
:101C90000021184600F06CFB0346FB7403E00123AF
:101CA000FB7400E000BFFB7C002B0BD15249524B70
:101CB000D3F8883023F040727B68DB6E1343C1F8A1
:101CC000883001E0FB7CBB747B681B6803F4003345
:101CD000002B00F0A08000237B74474B9B6D03F02A
:101CE0008053002B01D1012300E00023002B0DD0F5
:101CF000414A414B9B6D43F0805393653E4B9B6D36
:101D000003F08053BB60BB6801237B743B4A3B4BB1
:101D10001B6843F480731360FEF756FCF86009E01B
:101D2000FEF752FC0246FB68D31A022B02D90323AA
:101D3000FB7405E0314B1B6803F48073002BEFD07C
:101D4000FB7C002B5CD12C4BD3F8903003F4407318
:101D50007B617B69002B1FD07B68D3F888207B696F
:101D60009A4219D0244BD3F8903023F440737B610E
:101D7000214A214BD3F8903043F48033C2F890309D
:101D80001D4A1D4BD3F8903023F48033C2F89030B5
:101D9000194A7B69C2F890307B6903F00103002B7C
:101DA00016D0FEF711FCF8600BE0FEF70DFC0246C2
:101DB000FB68D31A41F28832934202D90323FB74A1
:101DC00006E00D4BD3F8903003F00203002BECD06B
:101DD000FB7C002B0CD10849074BD3F8903023F43F
:101DE00040727B68D3F888301343C1F8903009E023
:101DF000FB7CBB7406E000BF001002400070004096
:101E0000FB7CBB747B7C012B05D1A64AA54B9B6D4B
:101E100023F0805393657B681B6803F00103002B5C
:101E20000AD0A0499F4BD3F8883023F003027B6887
:101E30009B6B1343C1F888307B681B6803F0020377
:101E4000002B0AD09749974BD3F8883023F00C0227
:101E50007B68DB6B1343C1F888307B681B6803F039
:101E60000403002B0AD08F498E4BD3F8883023F01F
:101E700030027B681B6C1343C1F888307B681B6899
:101E800003F00803002B0AD08649864BD3F888302C
:101E900023F0C0027B685B6C1343C1F888307B6819
:101EA0001B6803F01003002B0AD07E497D4BD3F84A
:101EB000883023F440727B689B6C1343C1F88830F0
:101EC0007B681B6803F02003002B0AD07549754B13
:101ED000D3F8883023F440627B68DB6C1343C1F88D
:101EE00088307B681B6803F40073002B0AD06D49AF
:101EF0006C4BD3F8883023F440227B681B6E13436D
:101F0000C1F888307B681B6803F48063002B0AD01B
:101F10006449644BD3F8883023F440127B685B6ECD
:101F20001343C1F888307B681B6803F04003002B23
:101F30000AD05C495B4BD3F8883023F440527B686D
:101F40001B6D1343C1F888307B681B6803F0800366
:101F5000002B0AD05349534BD3F8883023F4404226
:101F60007B685B6D1343C1F888307B681B6803F4A2
:101F70008073002B0AD04B494A4BD3F8883023F4A6
:101F800040327B689B6D1343C1F888307B681B68C7
:101F900003F48013002B0AD04249424BD3F89C3003
:101FA00023F003027B68DB6D1343C1F89C307B6830
:101FB0001B6803F40053002B28D03A49394BD3F85F
:101FC000883023F040627B681B6F1343C1F8883070
:101FD0007B681B6FB3F1006F06D1324A314BDB686F
:101FE00043F48013D36011E07B681B6FB3F1806F03
:101FF0000CD17B6804330121184600F0C9F8034670
:10200000FB74FB7C002B01D0FB7CBB747B681B68E2
:1020100003F40023002B28D02249224BD3F8883028
:1020200023F040627B685B6F1343C1F888307B68A4
:102030005B6FB3F1006F06D11A4A1A4BDB6843F4A9
:102040008013D36011E07B685B6FB3F1806F0CD1BC
:102050007B6804330121184600F09AF80346FB74AC
:10206000FB7C002B01D0FB7CBB747B681B6803F4FA
:102070008023002B2AD00B490A4BD3F8883023F059
:1020800040627B689B6F1343C1F888307B689B6F0D
:10209000B3F1006F08D1034A024BDB6843F48013AD
:1020A000D36013E0001002407B689B6FB3F1806F38
:1020B0000CD17B6804330121184600F069F803460F
:1020C000FB74FB7C002B01D0FB7CBB747B681B6822
:1020D00003F48043002B2FD02C492C4BD3F88830AD
:1020E00023F040527B68DB6F1343C1F888307B6874
:1020F000DB6FB3F1805F0DD17B680433022118469A
:1021000000F046F80346FB74FB7C002B14D0FB7CEC
:10211000BB7411E07B68DB6FB3F1005F0CD17B68AF
:1021200020330221184600F023F90346FB74FB7CA0
:10213000002B01D0FB7CBB747B681B6803F400435D
:10214000002B0BD01149114BD3F8883023F080427B
:102150007B68D3F880301343C1F888307B681B68F4
:1021600003F48033002B0BD00849084BD3F8883098
:1021700023F000427B68D3F884301343C1F88830E1
:10218000BB7C18461837BD4680BD00BF001002401A
:1021900080B584B000AF786039600023FB73734B67
:1021A000DB6803F00303002B18D0704BDB6803F0EF
:1021B00003027B681B689A420DD17B681B68002B69
:1021C00009D06A4BDB681B0903F007035A1C7B68C4
:1021D0005B689A4244D00123FB7341E07B681B6833
:1021E000022B0CD0032B13D0012B20D15F4B1B688B
:1021F00003F00203002B1DD10123FB731AE05B4B9C
:102200001B6803F48063002B16D10123FB7313E0DA
:10221000564B1B6803F40033002B0FD1534B1B6844
:1022200003F48023002B09D10123FB7306E0012373
:10223000FB7304E000BF02E000BF00E000BFFB7BD7
:10224000002B0DD14948494BDB6823F073027B68B2
:1022500019687B685B68013B1B010B431343C36038
:10226000FB7B002B7CD1414A404B1B6823F08063F1
:102270001360FEF7A9F9B86009E0FEF7A5F9024678
:10228000BB68D31A022B02D90323FB7305E0374B3B
:102290001B6803F00063002BEFD1FB7B002B5FD1A9
:1022A0003B68002B10D13148304B1B6923F0784339
:1022B00023F4FE437A68926811027A68D268D206E3
:1022C0000A431343036127E03B68012B12D12748DF
:1022D000264B1B6923F4C00323F4FE437A689268FB
:1022E00011027A6812695208013A52050A431343EF
:1022F000036111E01D481D4B1B6923F0C06323F4EB
:10230000FE437A68926811027A6852695208013A6B
:1023100052060A4313430361144A144B1B6843F0EB
:1023200080631360FEF750F9B86009E0FEF74CF9DE
:102330000246BB68D31A022B02D90323FB7305E0C4
:102340000A4B1B6803F00063002BEFD0FB7B002BD4
:1023500006D10649054B1A697B689B6913430B61DB
:10236000FB7B18461037BD4680BD00BF0010024001
:1023700080B584B000AF786039600023FB73684B90
:10238000DB6803F00303002B18D0654BDB6803F018
:1023900003027B681B689A420DD17B681B68002B87
:1023A00009D05F4BDB681B0903F007035A1C7B68ED
:1023B0005B689A4244D00123FB7341E07B681B6851
:1023C000022B0CD0032B13D0012B20D1544B1B68B4
:1023D00003F00203002B1DD10123FB731AE0504BC5
:1023E0001B6803F48063002B16D10123FB7313E0F9
:1023F0004B4B1B6803F40033002B0FD1484B1B6879
:1024000003F48023002B09D10123FB7306E0012391
:10241000FB7304E000BF02E000BF00E000BFFB7BF5
:10242000002B0DD13E483E4BDB6823F073027B68E6
:1024300019687B685B68013B1B010B431343C36056
:10244000FB7B002B66D1364A354B1B6823F080534B
:102450001360FEF7B9F8B86009E0FEF7B5F8024678
:10246000BB68D31A022B02D90323FB7305E02C4B64
:102470001B6803F00053002BEFD1FB7B002B49D1ED
:102480003B68002B10D12648254B5B6923F078432D
:1024900023F4FE437A68926811027A68D268D20601
:1024A0000A431343436111E01D481D4B5B6923F050
:1024B000C06323F4FE437A68926811027A68126955
:1024C0005208013A52060A4313434361144A144B1B
:1024D0001B6843F080531360FEF776F8B86009E09C
:1024E000FEF772F80246BB68D31A022B02D9032307
:1024F000FB7305E00A4B1B6803F00053002BEFD081
:10250000FB7B002B06D10649054B5A697B685B694A
:1025100013434B61FB7B18461037BD4680BD00BF9F
:102520000010024080B584B000AF78607B68002B5B
:1025300001D101237AE07B6800229A627B6893F8DC
:102540005D30DBB2002B06D17B68002283F85C2073
:10255000786802F0A9F87B68022283F85D207B6826
:102560001B687A681268126822F040021A607B6861
:10257000DB68B3F5E06F02D90023FB6002E04FF4A3
:102580008053FB607B68DB68B3F5706F07D07B68B6
:10259000DB68B3F5E06F02D07B6800229A627B684B
:1025A0001B6B002B0BD17B68DB68B3F5E06F03D9A5
:1025B0007B6802221A6302E07B6801221A637B684F
:1025C0001B687A6851687A68926811437A68126960
:1025D00011437A68526911437A68926902F4007271
:1025E00011437A68D26911437A68126A11437A6892
:1025F000926A0A431A607B681B687A689269120CB7
:1026000002F004017A68526A11437A68526B1143EE
:102610007A68D2681143FA680A435A607B680022DC
:102620001A667B68012283F85D2000231846103764
:10263000BD4680BD80B582B000AF78607B68002B5E
:1026400001D1012340E07B685B6F002B06D17B68E2
:10265000002283F87020786802F0AEF97B682422AB
:102660005A677B681B687A681268126822F0010258
:102670001A60786800F0C0F80346012B01D10123ED
:1026800022E07B685B6A002B02D0786800F0EEFBEA
:102690007B681B687A681268526822F490425A601C
:1026A0007B681B687A681268926822F02A029A6036
:1026B0007B681B687A681268126842F001021A602F
:1026C000786800F075FC034618460837BD4680BDA3
:1026D00080B58AB002AFF860B9603B601346FB80FA
:1026E000FB685B6F202B40F08180BB68002B02D021
:1026F000FB88002B01D1012379E0FB6893F870304F
:10270000012B01D1022372E0FB68012283F87020C3
:10271000FB680022DA67FB6821225A67FDF754FF45
:102720007861FB68FA88A3F85020FB68FA88A3F860
:102730005220FB689B68B3F5805F08D1FB681B697A
:10274000002B04D10023FB61BB68BB6103E0BB68C5
:10275000FB610023BB612DE03B6800937B69002295
:102760008021F86800F069FC0346002B01D00323A8
:102770003DE0FB69002B0BD1FB681B68BA6912882E
:10278000C2F3080292B21A85BB690233BB6108E04A
:10279000FB681B68FA69127892B21A85FB690133EB
:1027A000FB61FB68B3F852309BB2013B9AB2FB6805
:1027B000A3F85220FB68B3F852309BB2002BCBD168
:1027C0003B6800937B6900224021F86800F035FCEB
:1027D0000346002B01D0032309E0FB6820225A673F
:1027E000FB68002283F87020002300E002231846D3
:1027F0002037BD4680BD00002DE9B04388B000AF52
:10280000786000237B610023FB740023FB607B68FE
:102810009A687B681B691A437B685B691A437B680B
:10282000DB691343FB617B681A687B681B68196866
:10283000AB4B0B40F9690B4313607B681B687A68EC
:102840001268526822F440517A68D2680A435A608A
:102850007B689B69FB617B681B68A24A934204D03A
:102860007B681B6AFA691343FB617B681B687A68A3
:102870001268926822F43061FA690A439A607B68B0
:102880001B68994A934221D1984BD3F8883003F0C2
:102890000303032B16D801A252F823F0AD28000839
:1028A000B9280008B3280008BF2800080123FB76D8
:1028B000E8E00223FB76E5E00423FB76E2E0082370
:1028C000FB76DFE01023FB7600BFDBE07B681B6854
:1028D000874A934234D1854BD3F8883003F00C03F8
:1028E0000C2B29D801A252F823F000BF212900089F
:1028F0003929000839290008392900082D2900083C
:102900003929000839290008392900082729000831
:102910003929000839290008392900083329000815
:102920000023FB76AEE00223FB76ABE00423FB76CC
:10293000A8E00823FB76A5E01023FB7600BFA1E00A
:102940007B681B686B4A934220D1684BD3F8883070
:1029500003F03003102B0FD0102B02D8002B05D022
:1029600010E0202B05D0302B09D00BE00023FB76A4
:1029700088E00223FB7685E00423FB7682E00823CF
:10298000FB767FE01023FB7600BF7BE07B681B6853
:10299000594A934220D1554BD3F8883003F0C003F5
:1029A000402B0FD0402B02D8002B05D010E0802BFD
:1029B00005D0C02B09D00BE00023FB7662E0022398
:1029C000FB765FE00423FB765CE00823FB7659E0AE
:1029D0001023FB7600BF55E07B681B68474A934293
:1029E00024D1424BD3F8883003F44073B3F5807F91
:1029F00012D0B3F5807F02D8002B07D012E0B3F5D8
:102A0000007F06D0B3F5407F09D00BE00023FB76B2
:102A100038E00223FB7635E00423FB7632E008231E
:102A2000FB762FE01023FB7600BF2BE07B681B6852
:102A30002C4A934224D12D4BD3F8883003F44063C1
:102A4000B3F5806F12D0B3F5806F02D8002B07D09A
:102A500012E0B3F5006F06D0B3F5406F09D00BE07C
:102A60000023FB760EE00223FB760BE00423FB76CB
:102A700008E00823FB7605E01023FB7600BF01E0A9
:102A80001023FB767B681B68164A934240F0ED806A
:102A9000FB7E082B36D801A252F823F0C12A000889
:102AA000052B0008C92A0008052B0008CF2A0008BA
:102AB000052B0008052B0008052B0008D72A000865
:102AC000FEF7E2FFF86020E00D4BFB601DE0FEF733
:102AD00045FFF86019E04FF40043FB6015E000BFCC
:102AE000F369FFEF00800040003801400010024011
:102AF0000044004000480040004C004000500040AE
:102B00000024F4000123FB7400BFFB68002B00F0DD
:102B10009E817B685A6813465B001A44FB689A42A0
:102B200005D87B685B681A03FB689A4202D20123CE
:102B3000FB748CE1FB7E082B00F2848001A252F82A
:102B400023F000BF692B0008452C0008A92B0008C2
:102B5000452C0008DD2B0008452C0008452C0008FA
:102B6000452C00081B2C0008FEF78EFF03464FF093
:102B700000044FEA042949EA13694FEA03287B68F5
:102B80005B685B084FF0000418EB030049EB04019D
:102B90007B685B684FF000041A462346FDF728FB6C
:102BA00003460C467B6150E07B685B685B084FF036
:102BB0000004AD494FF0000213EB010844EB020999
:102BC000404649467B685B684FF000041A4623463E
:102BD000FDF70EFB03460C467B6136E0FEF7BEFEBA
:102BE00003461A464FF000031D0245EA126514021F
:102BF0007B685B685B081A464FF00003A01845EB42
:102C000003017B685B684FF000041A462346FDF71A
:102C1000EFFA03460C467B6117E07B685B685B0854
:102C20004FF0000413F5000044F100017B685B687D
:102C30004FF000041A462346FDF7DAFA03460C4625
:102C40007B6102E00123FB7400BF7B69B3F5407F29
:102C500008D37B69B3F5801F04D27B681B687A694F
:102C6000DA60F4E00123FB74F1E07B68DB69B3F523
:102C7000004F7ED1FB7E082B5BD801A252F823F0D7
:102C8000A52C0008C32C0008E12C0008332D0008F7
:102C9000FD2C0008332D0008332D0008332D0008CB
:102CA0001B2D0008FEF7F0FE03465A007B685B68A8
:102CB0005B081A447B685B68B2FBF3F39BB27B61F1
:102CC0003AE0FEF7F7FE03465A007B685B685B0854
:102CD0001A447B685B68B2FBF3F39BB27B612BE029
:102CE0007B685B685B0803F1F47303F590437A68D3
:102CF0005268B3FBF2F39BB27B611DE0FEF72EFE40
:102D000003465A007B685B685B081A447B685B6813
:102D1000B2FBF3F39BB27B610EE07B685B685B0800
:102D200003F580327B685B68B2FBF3F39BB27B6197
:102D300002E00123FB7400BF7B690F2B16D97B696E
:102D4000B3F5803F12D27B699BB223F00F037B81E6
:102D50007B695B089BB203F007039AB27B8913433C
:102D60007B817B681B687A89DA6070E00123FB74E1
:102D70006DE0FB7E082B59D801A252F823F000BF6A
:102D8000A52D0008C12D0008DD2D00082D2E0008FE
:102D9000F92D00082D2E00082D2E00082D2E0008DC
:102DA000152E0008FEF770FE02467B685B685B0824
:102DB0001A447B685B68B2FBF3F39BB27B6138E03B
:102DC000FEF778FE02467B685B685B081A447B6806
:102DD0005B68B2FBF3F39BB27B612AE07B685B68C4
:102DE0005B0803F5740303F510537A685268B3FB6C
:102DF000F2F39BB27B611CE0FEF7B0FD02467B68FC
:102E00005B685B081A447B685B68B2FBF3F39BB2B8
:102E10007B610EE07B685B685B0803F500427B68C2
:102E20005B68B2FBF3F39BB27B6102E00123FB74AE
:102E300000BF7B690F2B08D97B69B3F5803F04D2B3
:102E40007B681B687A69DA6001E00123FB747B68A8
:102E500000221A667B6800225A66FB7C18462037DF
:102E6000BD46BDE8B08300BF000024F480B483B049
:102E700000AF78607B685B6A03F00103002B0AD027
:102E80007B681B687A681268526822F400317A689D
:102E9000926A0A435A607B685B6A03F00203002B64
:102EA0000AD07B681B687A681268526822F4803105
:102EB0007A68D26A0A435A607B685B6A03F004034B
:102EC000002B0AD07B681B687A681268526822F46B
:102ED00080217A68126B0A435A607B685B6A03F050
:102EE0000803002B0AD07B681B687A681268526856
:102EF00022F400417A68526B0A435A607B685B6A2D
:102F000003F01003002B0AD07B681B687A681268F4
:102F1000926822F480517A68926B0A439A607B68C7
:102F20005B6A03F02003002B0AD07B681B687A6879
:102F30001268926822F400517A68D26B0A439A6050
:102F40007B685B6A03F04003002B1AD07B681B6828
:102F50007A681268526822F480117A68126C0A4307
:102F60005A607B681B6CB3F5801F0AD17B681B68B5
:102F70007A681268526822F4C0017A68526C0A4377
:102F80005A607B685B6A03F08003002B0AD07B6881
:102F90001B687A681268526822F400217A68926C81
:102FA0000A435A6000BF0C37BD465DF8047B70478A
:102FB00080B586B002AF78607B680022DA67FDF7E3
:102FC00003FBF8607B681B681B6803F00803082B91
:102FD0000ED16FF07E430093FB6800224FF4001186
:102FE000786800F02AF80346002B01D0032320E084
:102FF0007B681B681B6803F00403042B0ED16FF081
:103000007E430093FB6800224FF48001786800F053
:1030100014F80346002B01D003230AE07B6820222A
:103020005A677B6820229A677B68002283F87020A9
:10303000002318461037BD4680BD80B584B000AF70
:10304000F860B9603B601346FB712AE0BB69B3F1DD
:10305000FF3F26D0FDF7B8FA02463B68D21ABB699B
:103060009A4202D8BB69002B1BD1FB681B68FA6827
:103070001268126822F4D0721A60FB681B68FA6842
:103080001268926822F001029A60FB6820225A6757
:10309000FB6820229A67FB68002283F870200323D4
:1030A0000FE0FB681B68DA69BB681A40BB689A428C
:1030B0000CBF01230023DBB21A46FB799A42C5D02C
:1030C000002318461037BD4680BD80B485B000AFE0
:1030D0000346FB800023FB60B7F90630842B05D044
:1030E000B7F90620FB6813440333FB60FB681846FE
:1030F0001437BD465DF8047B704780B500AF00F023
:10310000C1FD0023184680BDF0B587B002AF7860DE
:1031100039607B685C687B681D687B681B699EB250
:103120007B68B3F908301846FFF7CFFF024607F176
:103130000C03019300923B6832462946204600F07A
:1031400077FC0346012B01D0002300E0FB68184602
:103150001437BD46F0BD80B500AF01F063F80346FB
:10316000012B01D000F040FA00BF80BD80B483B0D5
:1031700000AF78603960812318460C37BD465DF892
:10318000047B704780B483B000AF78607B6803F144
:1031900008027B685A607B684FF0FF329A607B6858
:1031A00003F108027B68DA607B6803F108027B6840
:1031B0001A617B6800221A6000BF0C37BD465DF8BB
:1031C000047B704780B483B000AF78607B680022D6
:1031D0001A6100BF0C37BD465DF8047B704780B4B0
:1031E00085B000AF786039607B685B68FB603B68E6
:1031F000FA685A60FB689A683B689A60FB689B684B
:103200003A685A60FB683A689A603B687A681A6163
:103210007B681B685A1C7B681A6000BF1437BD4668
:103220005DF8047B704780B485B000AF78607B6840
:103230001B69FB607B685B687A6892689A607B6850
:103240009B687A6852685A60FB685A687B689A4241
:1032500003D17B689A68FB685A607B6800221A6118
:10326000FB681B685A1EFB681A60FB681B681846DF
:103270001437BD465DF8047B7047000080B485B00C
:1032800000AFF860B9607A60FB68043BFB60FB68E4
:103290004FF080721A60FB68043BFB60BB6823F050
:1032A0000102FB681A60FB68043BFB600C4AFB6888
:1032B0001A60FB68143BFB607A68FB681A60FB6865
:1032C000043BFB60FB686FF002021A60FB68203B66
:1032D000FB60FB6818461437BD465DF8047B7047F9
:1032E000E532000880B485B000AF00237B60114B4D
:1032F0001B68B3F1FF3F09D04FF0500383F31188EF
:10330000BFF36F8FBFF34F8FFB60FEE74FF05003AB
:1033100083F31188BFF36F8FBFF34F8FBB6000BF84
:103320007B68002BFCD000BF1437BD465DF8047BE2
:10333000704700BF080000200000000000000000EF
:10334000074B19680868B0E8F04F80F30988BFF3AD
:103350006F8F4FF0000080F311887047AFF300804B
:10336000040C002000BF00BF08480068006880F31C
:1033700008884FF0000080F3148862B661B6BFF38E
:103380004F8FBFF36F8F00DF00BF00BF08ED00E07D
:1033900080B586B000AF444B1B68444A934209D1C4
:1033A0004FF0500383F31188BFF36F8FBFF34F8F3C
:1033B0003B61FEE73C4B1B683D4A934209D14FF00D
:1033C000500383F31188BFF36F8FBFF34F8FFB6000
:1033D000FEE7384B7B617B691B78DBB27B607B69E6
:1033E000FF221A707B691B78DBB2FB70FB78DBB2C3
:1033F00003F05003DAB2304B1A70304B07221A60D8
:1034000009E02E4B1B68013B2C4A1360FB78DBB2B2
:103410005B00DBB2FB70FB78DBB203F08003802B38
:10342000EFD0264B1B68C3F10703042B09D04FF0E4
:10343000500383F31188BFF36F8FBFF34F8FBB60CF
:10344000FEE71E4B1B681B021C4A13601B4B1B68CC
:1034500003F4E063194A13607B68DAB27B691A707F
:10346000174A174B1B6843F470031360144A144B3C
:103470001B6843F07043136000F0D6F8114B002234
:103480001A6000F0F5F8104A0F4B1B6843F04043F8
:103490001360FFF769FF00F0B1FDFFF723FF002382
:1034A00018461837BD4680BD00ED00E071C20F41DF
:1034B00070C20F4100E400E02C000020300000202A
:1034C00020ED00E00800002034EF00E080B483B07D
:1034D00000AF4FF0500383F31188BFF36F8FBFF33A
:1034E0004F8F7B600E4B1B6801330D4A13600C4BF2
:1034F0001B68012B0ED10B4B1B68DBB2002B09D0D4
:103500004FF0500383F31188BFF36F8FBFF34F8FDA
:103510003B60FEE700BF0C37BD465DF8047B70479B
:103520000800002004ED00E080B483B000AF114B30
:103530001B68002B09D14FF0500383F31188BFF3B0
:103540006F8FBFF34F8F7B60FEE70A4B1B68013B19
:10355000084A1360074B1B68002B04D100233B6013
:103560003B6883F3118800BF0C37BD465DF8047BD0
:10357000704700BF080000200000000000000000AD
:10358000EFF30980BFF36F8F154B1A681EF0100F11
:1035900008BF20ED108A20E9F04F10602DE90900E6
:1035A0004FF0500080F31188BFF34F8FBFF36F8F40
:1035B00000F024FD4FF0000080F3118809BC196869
:1035C0000868B0E8F04F1EF0100F08BFB0EC108A8A
:1035D00080F30988BFF36F8F704700BFAFF300809F
:1035E000040C002000BF00BF80B582B000AF4FF0D8
:1035F000500383F31188BFF36F8FBFF34F8F7B604E
:1036000000F040FC0346002B03D0064B4FF08052E5
:103610001A6000233B603B6883F3118800BF0837C2
:10362000BD4680BD04ED00E080B400AF0B4B00222E
:103630001A600B4B00221A600A4A0B4B1B680B499D
:10364000A1FB03139B09013B1360044B07221A6083
:1036500000BFBD465DF8047B704700BF10E000E08E
:1036600018E000E014E000E00C000020D34D6210F0
:10367000DFF80C00016841F470010160704700BF81
:1036800088ED00E080B58AB000AF78600023FB6170
:1036900000F03EFB574B1B68002B01D100F00CF9EA
:1036A000554B1A687B681340002B40F08C807B6878
:1036B000002B1CD008227B6813447B607B6803F0DE
:1036C0000703002B13D07B6823F0070308337B60CC
:1036D0007B6803F00703002B09D04FF0500383F3FE
:1036E0001188BFF36F8FBFF34F8F7B61FEE77B685D
:1036F000002B68D0414B1B687A689A4263D8404BD4
:103700003B623F4B1B687B6204E07B6A3B627B6AE7
:103710001B687B627B6A5A687B689A4203D27B6A29
:103720001B68002BF1D1334B1B687A6A9A424AD04E
:103730003B6A1B6808221344FB617B6A1A683B6A78
:103740001A607B6A5A687B68D21A08235B009A4227
:103750001ED97A6A7B681344BB61BB6903F0070317
:10376000002B09D04FF0500383F31188BFF36F8F04
:10377000BFF34F8F3B61FEE77B6A5A687B68D21AC2
:10378000BB695A607B6A7A685A60B86900F0F6F8DB
:103790001A4B1A687B6A5B68D31A184A1360174B76
:1037A0001A68184B1B689A4203D2144B1B68154ABF
:1037B00013607B6A5A68104B1B681A437B6A5A6015
:1037C0007B6A00221A6000F0B1FAFB6903F007037C
:1037D000002B09D04FF0500383F31188BFF36F8F94
:1037E000BFF34F8FFB60FEE7FB6918462837BD46E5
:1037F00080BD00BFF40B0020000C0020F80B00205F
:10380000EC0B0020FC0B002080B586B000AF786088
:103810007B687B617B68002B46D008235B427A691A
:1038200013447B617B693B613B695A68204B1B6891
:103830001340002B09D14FF0500383F31188BFF3DD
:103840006F8FBFF34F8FFB60FEE73B691B68002B58
:1038500009D04FF0500383F31188BFF36F8FBFF38C
:103860004F8FBB60FEE73B695A68114B1B681340E2
:10387000002B19D03B691B68002B15D13B695A6896
:103880000B4B1B68DB431A403B695A6000F040FA5F
:103890003B695A68074B1B681344064A1360386932
:1038A00000F06CF800F042FA00BF1837BD4680BD4A
:1038B000000C0020F80B002080B485B000AF40F66B
:1038C000B833BB60274BFB60FB6803F00703002B9A
:1038D0000CD0FB680733FB60FB6823F00703FB6039
:1038E000BA68FB68D31A1F4A1344BB60FB687B604D
:1038F0001D4A7B6813601C4B00225A607A68BB68C3
:103900001344FB600822FB689B1AFB60FB6823F0F2
:103910000703FB60FB68154A1360144B1B68002209
:103920005A60124B1B6800221A607B683B603B6840
:10393000FA68D21A3B685A600C4B1A683B681A60E6
:103940003B685B680A4A13603B685B68094A13601E
:10395000094B4FF000421A6000BF1437BD465DF8B6
:10396000047B704734000020EC0B0020F40B002097
:10397000FC0B0020F80B0020000C002080B485B068
:1039800000AF7860284BFB6002E0FB681B68FB60BF
:10399000FB681A687B689A42F7D3FB68BB60FB68D8
:1039A0005B68BA681A447B689A4208D1FB685A6817
:1039B0007B685B681A44FB685A60FB687B607B68C5
:1039C000BB607B685B68BA681A44FB681B689A42F4
:1039D00018D1FB681A68154B1B689A420DD07B689A
:1039E0005A68FB681B685B681A447B685A60FB680E
:1039F0001B681A687B681A6008E00C4B1A687B68C1
:103A00001A6003E0FB681A687B681A60FA687B68D2
:103A10009A4202D0FB687A681A6000BF1437BD462C
:103A20005DF8047B704700BFEC0B0020F40B002016
:103A300080B58CB004AFF860B9603B601346FB8082
:103A4000FB889B001846FFF71DFE78617B69002B01
:103A50000ED05420FFF716FEF861FB69002B03D04F
:103A6000FB697A691A6305E07869FFF7CDFE01E02A
:103A70000023FB61FB69002B13D0FA88002303931A
:103A8000FB690293FB6A0193BB6A00933B68B968C8
:103A9000F86800F00EF8F86900F08AF80123BB61BD
:103AA00002E04FF0FF33BB61BB6918462037BD46CB
:103AB00080BD80B588B000AFF860B9607A603B60C7
:103AC0003B6B1A6B7B6803F18043013B9B00134403
:103AD000BB61BB6923F00703BB61BB6903F007034C
:103AE000002B09D04FF0500383F31188BFF36F8F81
:103AF000BFF34F8F7B61FEE70023FB6112E0BA68E2
:103B0000FB69134419783A6BFB69134434330A4652
:103B10001A70BA68FB6913441B78002B06D0FB6946
:103B20000133FB61FB690F2BE9D900E000BF3B6B60
:103B3000002283F84320BB6A062B01D90623BB620F
:103B40003B6BBA6ADA623B6BBA6A5A643B6B00221F
:103B50009A643B6B04331846FFF734FB3B6B183316
:103B60001846FFF72FFB3B6B3A6B1A61BB6AC3F138
:103B700007023B6B9A613B6B3A6B5A623B6B0022CC
:103B8000DA643B6B002283F850203A68F968B86920
:103B9000FFF774FB02463B6B1A60FB6A002B02D0F6
:103BA000FB6A3A6B1A6000BF2037BD4680BD00003B
:103BB00080B582B000AF7860FFF788FC2A4B1B68A5
:103BC0000133294A1360294B1B68002B09D1274A6E
:103BD0007B681360244B1B68012B10D100F080FA26
:103BE0000DE0234B1B68002B09D1204B1B68DA6AC0
:103BF0007B68DB6A9A4202D81C4A7B6813601D4BC3
:103C00001B6801331B4A13607B68DB6A01229A4000
:103C1000194B1B681343184A13607B68DA6A134612
:103C20009B0013449B00154A1A447B6804331946D1
:103C30001046FFF7D4FAFFF777FC0D4B1B68002BFB
:103C40000ED00A4B1B68DA6A7B68DB6A9A4207D29D
:103C50000B4B4FF080521A60BFF34F8FBFF36F8F43
:103C600000BF0837BD4680BD040D0020040C0020B5
:103C7000100D0020200D00200C0D0020080C00204D
:103C800004ED00E080B586B002AF1B4B019300232A
:103C900000930023802219491948FFF7C9FEF860F4
:103CA000FB68012B15D14FF0500383F31188BFF34C
:103CB0006F8FBFF34F8FBB60124B4FF0FF321A6014
:103CC000114B01221A60114B00221A60FFF760FBB2
:103CD0000DE0FB68B3F1FF3F09D14FF0500383F3D0
:103CE0001188BFF36F8FBFF34F8F7B60FEE700BF7C
:103CF0001037BD4680BD00BF280D0020004B0008D6
:103D0000B1400008240D0020100D0020080D0020F7
:103D100080B400AF044B1B680133034A136000BF3B
:103D2000BD465DF8047B70472C0D002080B584B043
:103D300000AF0023FB600023BB60414B1B68002BDE
:103D400009D14FF0500383F31188BFF36F8FBFF396
:103D50004F8F3B60FEE7FFF7B9FB394B1B68013B18
:103D6000374A1360364B1B68002B61D1354B1B68FB
:103D7000002B5DD02EE0344BDB68DB68FB60FB681A
:103D800018331846FFF74FFAFB6804331846FFF75D
:103D90004AFAFB68DB6A01229A402C4B1B681343EA
:103DA0002A4A1360FB68DA6A13469B0013449B009F
:103DB000274A1A44FB68043319461046FFF70FFAE6
:103DC000FB68DA6A234B1B68DB6A9A4202D3224BF8
:103DD00001221A601C4B1B68002BCCD1FB68002B06
:103DE00001D000F0F9F91D4B1B687B607B68002B4C
:103DF00010D000F047F80346002B02D0164B0122EA
:103E00001A607B68013B7B607B68002BF1D1134B10
:103E100000221A60104B1B68002B09D00123BB60E5
:103E20000F4B4FF080521A60BFF34F8FBFF36F8F6D
:103E3000FFF77AFBBB6818461037BD4680BD00BF50
:103E40002C0D0020040D0020C40C00200C0D0020BF
:103E5000080C0020040C0020180D0020140D002078
:103E600004ED00E080B483B000AF054B1B687B60BD
:103E70007B6818460C37BD465DF8047B704700BF71
:103E8000080D002080B586B000AF00237B61504B49
:103E90001B68002B40F08C804E4B1B6801333B614C
:103EA0004C4A3B6913603B69002B1FD14A4B1B688E
:103EB0001B68002B09D04FF0500383F31188BFF328
:103EC0006F8FBFF34F8F3B60FEE7434B1B68FB6078
:103ED000424B1B68404A1360404AFB681360404BEA
:103EE0001B6801333E4A136000F076F93D4B1B68B6
:103EF0003A699A424DD3384B1B681B68002B01D19D
:103F0000012300E00023002B04D0364B4FF0FF329A
:103F10001A603EE0304B1B68DB68DB68BB60BB6847
:103F20005B687B603A697B689A4203D22D4A7B6862
:103F300013602EE0BB6804331846FFF774F9BB68C2
:103F40009B6A002B04D0BB6818331846FFF76BF947
:103F5000BB68DB6A01229A40234B1B681343224A49
:103F60001360BB68DA6A13469B0013449B001F4A28
:103F70001A44BB68043319461046FFF730F9BB6892
:103F8000DA6A1B4B1B68DB6A9A42B4D301237B615C
:103F9000B1E7174B1B68DA6A144913469B001344B8
:103FA0009B000B441B68012B07D901237B6104E0B4
:103FB000104B1B6801330F4A13600F4B1B68002B1B
:103FC00001D001237B617B6918461837BD4680BD4F
:103FD0002C0D0020080D0020BC0C0020C00C00207F
:103FE0001C0D0020240D00200C0D0020080C0020CA
:103FF000040C0020140D0020180D002080B487B0A0
:1040000000AF264B1B68002B03D0254B01221A6002
:104010003EE0234B00221A60224B1B68FB60FB68CA
:10402000B3FA83F3FB72FB7AC3F11F037B611E4972
:104030007A6913469B0013449B000B441B68002BBA
:1040400009D14FF0500383F31188BFF36F8FBFF393
:104050004F8F7B60FEE77A6913469B0013449B00F9
:10406000114A13443B613B695B685A683B695A607B
:104070003B695A683B6908339A4204D13B695B68E3
:104080005A683B695A603B695B68DB68074A1360A2
:1040900000BF1C37BD465DF8047B70472C0D002027
:1040A000180D00200C0D0020080C0020040C00202E
:1040B00080B582B000AF786000F052F8064B1B6804
:1040C000012BF9D9054B4FF080521A60BFF34F8F87
:1040D000BFF36F8FF0E700BF080C002004ED00E095
:1040E00080B582B000AF00237B600CE07A68134695
:1040F0009B0013449B00124A13441846FFF742F8F2
:104100007B6801337B607B68062BEFD90D48FFF796
:1041100039F80D48FFF736F80C48FFF733F80C482C
:10412000FFF730F80B48FFF72DF80B4B054A1A60E4
:104130000A4B054A1A6000BF0837BD4680BD00BF64
:10414000080C0020940C0020A80C0020C40C0020B7
:10415000D80C0020F00C0020BC0C0020C00C00206B
:1041600080B582B000AF19E0FFF7B0F90F4BDB6804
:10417000DB687B607B6804331846FFF754F80C4B10
:104180001B68013B0A4A13600A4B1B68013B094A42
:104190001360FFF7C9F9786800F00EF8054B1B684B
:1041A000002BE1D100BF0837BD4680BDD80C0020F0
:1041B000040D0020EC0C002080B582B000AF7860C8
:1041C0007B681B6B1846FFF71FFB7868FFF71CFB2B
:1041D00000BF0837BD4680BD80B483B000AF0F4B31
:1041E0001B681B68002B01D1012300E00023002B7A
:1041F00004D00B4B4FF0FF321A6008E0074B1B68EE
:10420000DB68DB687B607B685B68054A136000BF26
:104210000C37BD465DF8047B704700BFBC0C002026
:10422000240D002080B483B000AF0B4B1B68002B23
:1042300002D101237B6008E0084B1B68002B02D1F0
:1042400002237B6001E000237B607B6818460C370B
:10425000BD465DF8047B7047100D00202C0D00203A
:1042600080B500AF0D4B0E4A1A600C4B00221A713C
:104270000A4B00225A71094B00225A61074B002257
:104280009A61064B01221A620448FCF78DFA034634
:10429000002B01D000F03BF900BF80BD340D0020A1
:1042A0000030024080B485B000AF78607B681B6846
:1042B0000A4A93420BD10A4A094B9B6C43F4805340
:1042C0009364074B9B6C03F48053FB60FB6800BF57
:1042D0001437BD465DF8047B704700BF00300240D4
:1042E00000100240B0B586B000AF094B3C1D1D4622
:1042F0000FCD0FC42B6823603B1D00211846FEF72D
:1043000003FF0246034B1A6000BF1837BD46B0BD1D
:10431000184B00085C0D002080B588B000AF7860B5
:104320000023FB77FFF79EFD0346BB6100F07CFA9C
:104330000346FB77FA7F07F10C031146184600F09D
:10434000EDF807F10C030C21184600F021F907F1F4
:10435000180332211846FEF709FFE7E780B588B059
:1043600000AF07F10C0300221A605A609A60DA600D
:104370001A61204A1F4BDB6C43F08003D3641D4B52
:10438000DB6C03F08003BB60BB681A4A194BDB6C23
:1043900043F00103D364174BDB6C03F001037B6034
:1043A0007B68144A134BDB6C43F00203D364114B5C
:1043B000DB6C03F002033B603B684FF47C73FB60F3
:1043C00000233B6100237B6107F10C0319460A4877
:1043D000FCF7E6FB0823FB6000233B6100237B61C5
:1043E00007F10C0319460548FCF7DAFB00BF20373C
:1043F000BD4680BD0010024000040048001C00487B
:1044000080B500AFFCF77CF800F00FF8FFF7A6FFCF
:1044100000F0D2F800F00AF900F09EFAFFF720FF52
:10442000FFF760FFFEF769FEFEE780B5BAB000AFA8
:1044300007F1A40344220021184600F04DFB07F1C8
:10444000900300221A605A609A60DA601A613B1D7C
:104450008C220021184600F03FFB0123C7F8A4304E
:104460004FF48033C7F8A8300223C7F8CC300323B9
:10447000C7F8D0300223C7F8D4301023C7F8D8309B
:104480000223C7F8DC300223C7F8E0300223C7F864
:10449000E43007F1A4031846FCF790FD0346002B17
:1044A00001D000F034F80F23C7F890300323C7F889
:1044B00094300023C7F898300023C7F89C300023BD
:1044C000C7F8A03007F1900304211846FDF764F9FE
:1044D0000346002B01D000F01AF802237B60002372
:1044E0003B643B1D1846FDF75BFB0346002B01D0E8
:1044F00000F00DF84FF40070FCF70AFD0346002BA6
:1045000001D000F004F800BFE837BD4680BD80B49C
:1045100000AF00BFBD465DF8047B704790B583B027
:1045200000AF78600B46FB707B687B221A707B685B
:104530000133A5221A707B6802332C221A707B6823
:10454000033304221A707B6804332C221A707B68B0
:104550000533FA781A707B6806332C221A707B6850
:10456000DC1D7B680133052219460848FCF780F9F9
:10457000034623607B680B337D221A707B680C3303
:104580000A221A7000BF0C37BD4690BD340D0020C2
:1045900080B582B000AF78600B46FB70FB789AB2B2
:1045A000032379680348FEF793F800BF0837BD4638
:1045B00080BD00BF280E002080B500AF194B1A4AFD
:1045C0001A60184B00225A60164B4FF400429A6052
:1045D000144B4FF44072DA60124B00221A61114BF7
:1045E00000225A610F4B00229A610E4B00221A6280
:1045F0000C4B00225A620B4B00229A62094B072295
:10460000DA62084B00221A63064B00225A630548FF
:10461000FDF788FF0346002B01D0FFF778FF00BFAE
:1046200080BD00BFC40D00200030014080B500AF48
:104630001B4B1C4A1A601A4B4FF482725A60184B7B
:104640004FF400429A60164B4FF44072DA60144BFC
:1046500000221A61124B00225A61114B4FF4802242
:104660009A610F4B0022DA610D4B00221A620C4B4B
:1046700000225A620A4B00229A62094B0722DA6230
:10468000074B00221A63064B08225A630448FDF7C1
:1046900049FF0346002B01D0FFF739FF00BF80BD63
:1046A000600D00200038004080B58CB000AF78600D
:1046B00007F11C0300221A605A609A60DA601A61DE
:1046C0007B681B682F4A934229D12F4A2E4B1B6EC1
:1046D00043F4805313662C4B1B6E03F48053BB6171
:1046E000BB69294A284BDB6C43F00103D364264B9A
:1046F000DB6C03F001037B617B697023FB610223A8
:104700003B6200237B620323BB620523FB6207F14C
:104710001C0319464FF09040FCF742FA2DE07B68ED
:104720001B681A4A934228D1174A174B9B6D43F4D2
:1047300080439365144B9B6D03F480433B613B695D
:10474000114A114BDB6C43F00203D3640E4BDB6C5C
:1047500003F00203FB60FB684FF43043FB6102236C
:104760003B6200237B620323BB620523FB6207F1EC
:104770001C0319460648FCF713FA00BF3037BD4644
:1047800080BD00BF003001400010024000380040F2
:104790000004004880B582B000AF114A104B1B6E78
:1047A00043F0010313660E4B1B6E03F001037B60A5
:1047B0007B680B4A0A4B9B6D43F080539365084B13
:1047C0009B6D03F080533B603B6800220F216FF02C
:1047D0000100FBF7C0FF00BF0837BD4680BD00BF2A
:1047E0000010024080B400AF00BFBD465DF8047BFE
:1047F000704780B400AFFEE780B400AFFEE780B43E
:1048000000AFFEE780B400AFFEE780B400AF00BFAA
:10481000BD465DF8047B704780B500AFFBF7C2FE74
:10482000FEF799FC00BF80BD80B582B000AF0023C9
:10483000FB7110212B48FCF745FB03469B015AB244
:1048400097F9073013435BB2FB7120212548FCF731
:1048500039FB03465B015AB297F9073013435BB249
:10486000FB7140211F48FCF72DFB03461B015AB288
:1048700097F9073013435BB2FB714FF4007119488D
:10488000FCF720FB0346DB005AB297F907301343CD
:104890005BB2FB714FF480711248FCF713FB0346C7
:1048A0009B005AB297F9073013435BB2FB710821A2
:1048B0000D48FCF707FB03465B005AB297F9073037
:1048C00013435BB2FB7180210648FCF7FBFA0346F9
:1048D0001A46FB791343FB71FB7918460837BD462E
:1048E00080BD00BF00040048001C004880B400AF39
:1048F000174A174BD3F8883043F47003C2F8883056
:10490000144A144B1B6843F001031360114B00223F
:104910009A60104A0F4B1B6823F0A85323F410230E
:1049200013600C4B4FF48052DA600A4A094B1B6843
:1049300023F480231360074B00229A61044B4FF04D
:1049400000629A6000BFBD465DF8047B704700BFFF
:1049500000ED00E00010024080B500AF144B154A96
:104960001A60134B4FF4E1325A60114B00229A60E7
:104970000F4B0022DA600E4B00221A610C4B0C2206
:104980005A610B4B00229A61094B0022DA61084BF5
:1049900000221A62064B00225A620548FDF74AFEC1
:1049A0000346002B01D0FFF7B2FD00BF80BD00BF62
:1049B000280E00200044004080B58AB000AF786027
:1049C00007F1140300221A605A609A60DA601A61D3
:1049D0007B681B68174A934228D1174A164B9B6D78
:1049E00043F400339365144B9B6D03F400333B6138
:1049F0003B69114A104BDB6C43F00103D3640E4B4F
:104A0000DB6C03F00103FB60FB680C237B6102237A
:104A1000BB610023FB6103233B6207237B6207F139
:104A2000140319464FF09040FCF7BAF800BF28373E
:104A3000BD4680BD0044004000100240DFF834D085
:104A4000002103E00C4B5B58435004310B480C4BE6
:104A500042189A42F6D30B4A02E0002342F8043B84
:104A6000094B9A42F9D3FFF741FF00F011F8FFF725
:104A7000C7FCFEE700000520844B00080000002072
:104A80001000002010000020A80E0020FEE700000B
:104A900070B50D4E0D4CA41BA4100025A54209D1E4
:104AA0000B4E0C4C00F020F8A41BA4100025A542CE
:104AB00005D170BD56F8253098470135EEE756F818
:104AC000253098470135F2E77C4B00087C4B000805
:104AD0007C4B0008804B000802440346934200D1FF
:104AE000704703F8011BF9E7F8B500BFF8BC08BC34
:104AF0009E467047F8B500BFF8BC08BC9E4670479C
:104B000049444C450000000073776974636853742E
:104B10006174655461736B00084B00081943000809
:104B20000000000000000000800000000000000005
:104B3000000000000102030406070809000000004D
:104B400001020304A0860100400D0300801A060044
:104B500000350C0040420F0080841E0000093D001B
:104B600000127A000024F40000366E010048E801CB
:044B7000006CDC02F7
:084B7400ACB6FF7F0100000058
:044B7C00D501000857
:044B8000B101000877
:104B84001000000001000000AAAAAAAA00093D0022
:0400000508004A3D68
:00000001FF
